{
  "abi": [
    {
      "inputs": [
        {
          "internalType": "contract ERC20",
          "name": "token_",
          "type": "address"
        },
        {
          "internalType": "address",
          "name": "arbitrator_",
          "type": "address"
        }
      ],
      "stateMutability": "nonpayable",
      "type": "constructor"
    },
    {
      "inputs": [],
      "name": "AgreementIsDisputed",
      "type": "error"
    },
    {
      "inputs": [],
      "name": "AgreementIsFinalized",
      "type": "error"
    },
    {
      "inputs": [],
      "name": "AgreementNotDisputed",
      "type": "error"
    },
    {
      "inputs": [],
      "name": "AgreementNotFinalized",
      "type": "error"
    },
    {
      "inputs": [],
      "name": "BalanceMustMatch",
      "type": "error"
    },
    {
      "inputs": [],
      "name": "InsufficientBalance",
      "type": "error"
    },
    {
      "inputs": [],
      "name": "InvalidProof",
      "type": "error"
    },
    {
      "inputs": [],
      "name": "NoPartOfAgreement",
      "type": "error"
    },
    {
      "inputs": [],
      "name": "NonExistentAgreement",
      "type": "error"
    },
    {
      "inputs": [],
      "name": "OnlyArbitrator",
      "type": "error"
    },
    {
      "inputs": [],
      "name": "PartyAlreadyFinalized",
      "type": "error"
    },
    {
      "inputs": [],
      "name": "PartyAlreadyJoined",
      "type": "error"
    },
    {
      "inputs": [],
      "name": "PartyMustMatchCriteria",
      "type": "error"
    },
    {
      "inputs": [],
      "name": "PositionsMustMatch",
      "type": "error"
    },
    {
      "anonymous": false,
      "inputs": [
        {
          "indexed": false,
          "internalType": "bytes32",
          "name": "id",
          "type": "bytes32"
        },
        {
          "indexed": false,
          "internalType": "bytes32",
          "name": "termsHash",
          "type": "bytes32"
        },
        {
          "indexed": false,
          "internalType": "uint256",
          "name": "criteria",
          "type": "uint256"
        }
      ],
      "name": "AgreementCreated",
      "type": "event"
    },
    {
      "anonymous": false,
      "inputs": [
        {
          "indexed": false,
          "internalType": "bytes32",
          "name": "id",
          "type": "bytes32"
        },
        {
          "indexed": false,
          "internalType": "address",
          "name": "party",
          "type": "address"
        }
      ],
      "name": "AgreementDisputed",
      "type": "event"
    },
    {
      "anonymous": false,
      "inputs": [
        {
          "indexed": false,
          "internalType": "bytes32",
          "name": "id",
          "type": "bytes32"
        }
      ],
      "name": "AgreementFinalized",
      "type": "event"
    },
    {
      "anonymous": false,
      "inputs": [
        {
          "indexed": false,
          "internalType": "bytes32",
          "name": "id",
          "type": "bytes32"
        },
        {
          "indexed": false,
          "internalType": "address",
          "name": "party",
          "type": "address"
        },
        {
          "indexed": false,
          "internalType": "uint256",
          "name": "balance",
          "type": "uint256"
        }
      ],
      "name": "AgreementJoined",
      "type": "event"
    },
    {
      "anonymous": false,
      "inputs": [
        {
          "indexed": false,
          "internalType": "bytes32",
          "name": "id",
          "type": "bytes32"
        },
        {
          "indexed": false,
          "internalType": "address",
          "name": "party",
          "type": "address"
        },
        {
          "indexed": false,
          "internalType": "uint256",
          "name": "balance",
          "type": "uint256"
        },
        {
          "indexed": false,
          "internalType": "enum PositionStatus",
          "name": "status",
          "type": "uint8"
        }
      ],
      "name": "AgreementPositionUpdated",
      "type": "event"
    },
    {
      "inputs": [
        {
          "internalType": "bytes32",
          "name": "",
          "type": "bytes32"
        }
      ],
      "name": "agreement",
      "outputs": [
        {
          "internalType": "bytes32",
          "name": "termsHash",
          "type": "bytes32"
        },
        {
          "internalType": "uint256",
          "name": "criteria",
          "type": "uint256"
        },
        {
          "internalType": "string",
          "name": "metadataURI",
          "type": "string"
        },
        {
          "internalType": "uint256",
          "name": "balance",
          "type": "uint256"
        },
        {
          "internalType": "uint256",
          "name": "finalizations",
          "type": "uint256"
        },
        {
          "internalType": "bool",
          "name": "disputed",
          "type": "bool"
        }
      ],
      "stateMutability": "view",
      "type": "function"
    },
    {
      "inputs": [
        {
          "internalType": "bytes32",
          "name": "id",
          "type": "bytes32"
        }
      ],
      "name": "agreementParams",
      "outputs": [
        {
          "components": [
            {
              "internalType": "bytes32",
              "name": "termsHash",
              "type": "bytes32"
            },
            {
              "internalType": "uint256",
              "name": "criteria",
              "type": "uint256"
            },
            {
              "internalType": "string",
              "name": "metadataURI",
              "type": "string"
            }
          ],
          "internalType": "struct AgreementParams",
          "name": "params",
          "type": "tuple"
        }
      ],
      "stateMutability": "view",
      "type": "function"
    },
    {
      "inputs": [
        {
          "internalType": "bytes32",
          "name": "id",
          "type": "bytes32"
        }
      ],
      "name": "agreementPositions",
      "outputs": [
        {
          "components": [
            {
              "internalType": "address",
              "name": "party",
              "type": "address"
            },
            {
              "internalType": "uint256",
              "name": "balance",
              "type": "uint256"
            },
            {
              "internalType": "enum PositionStatus",
              "name": "status",
              "type": "uint8"
            }
          ],
          "internalType": "struct AgreementPosition[]",
          "name": "",
          "type": "tuple[]"
        }
      ],
      "stateMutability": "view",
      "type": "function"
    },
    {
      "inputs": [],
      "name": "arbitrator",
      "outputs": [
        {
          "internalType": "address",
          "name": "",
          "type": "address"
        }
      ],
      "stateMutability": "view",
      "type": "function"
    },
    {
      "inputs": [
        {
          "components": [
            {
              "internalType": "bytes32",
              "name": "termsHash",
              "type": "bytes32"
            },
            {
              "internalType": "uint256",
              "name": "criteria",
              "type": "uint256"
            },
            {
              "internalType": "string",
              "name": "metadataURI",
              "type": "string"
            }
          ],
          "internalType": "struct AgreementParams",
          "name": "params",
          "type": "tuple"
        }
      ],
      "name": "createAgreement",
      "outputs": [
        {
          "internalType": "bytes32",
          "name": "agreementId",
          "type": "bytes32"
        }
      ],
      "stateMutability": "nonpayable",
      "type": "function"
    },
    {
      "inputs": [
        {
          "internalType": "bytes32",
          "name": "id",
          "type": "bytes32"
        }
      ],
      "name": "disputeAgreement",
      "outputs": [],
      "stateMutability": "nonpayable",
      "type": "function"
    },
    {
      "inputs": [
        {
          "internalType": "bytes32",
          "name": "id",
          "type": "bytes32"
        }
      ],
      "name": "finalizeAgreement",
      "outputs": [],
      "stateMutability": "nonpayable",
      "type": "function"
    },
    {
      "inputs": [
        {
          "internalType": "bytes32",
          "name": "id",
          "type": "bytes32"
        },
        {
          "components": [
            {
              "internalType": "address",
              "name": "account",
              "type": "address"
            },
            {
              "internalType": "uint256",
              "name": "balance",
              "type": "uint256"
            },
            {
              "internalType": "bytes32[]",
              "name": "proof",
              "type": "bytes32[]"
            }
          ],
          "internalType": "struct CriteriaResolver",
          "name": "resolver",
          "type": "tuple"
        }
      ],
      "name": "joinAgreement",
      "outputs": [],
      "stateMutability": "nonpayable",
      "type": "function"
    },
    {
      "inputs": [
        {
          "internalType": "bytes32",
          "name": "id",
          "type": "bytes32"
        },
        {
          "components": [
            {
              "internalType": "address",
              "name": "account",
              "type": "address"
            },
            {
              "internalType": "uint256",
              "name": "balance",
              "type": "uint256"
            },
            {
              "internalType": "bytes32[]",
              "name": "proof",
              "type": "bytes32[]"
            }
          ],
          "internalType": "struct CriteriaResolver",
          "name": "resolver",
          "type": "tuple"
        },
        {
          "components": [
            {
              "internalType": "uint256",
              "name": "value",
              "type": "uint256"
            },
            {
              "internalType": "uint256",
              "name": "deadline",
              "type": "uint256"
            },
            {
              "internalType": "uint8",
              "name": "v",
              "type": "uint8"
            },
            {
              "internalType": "bytes32",
              "name": "r",
              "type": "bytes32"
            },
            {
              "internalType": "bytes32",
              "name": "s",
              "type": "bytes32"
            }
          ],
          "internalType": "struct Permit",
          "name": "permit",
          "type": "tuple"
        }
      ],
      "name": "joinAgreementWithPermit",
      "outputs": [],
      "stateMutability": "nonpayable",
      "type": "function"
    },
    {
      "inputs": [
        {
          "internalType": "bytes32",
          "name": "id",
          "type": "bytes32"
        },
        {
          "components": [
            {
              "internalType": "address",
              "name": "party",
              "type": "address"
            },
            {
              "internalType": "uint256",
              "name": "balance",
              "type": "uint256"
            }
          ],
          "internalType": "struct PositionParams[]",
          "name": "settlement",
          "type": "tuple[]"
        }
      ],
      "name": "settleDispute",
      "outputs": [],
      "stateMutability": "nonpayable",
      "type": "function"
    },
    {
      "inputs": [],
      "name": "token",
      "outputs": [
        {
          "internalType": "contract ERC20",
          "name": "",
          "type": "address"
        }
      ],
      "stateMutability": "view",
      "type": "function"
    },
    {
      "inputs": [
        {
          "internalType": "bytes32",
          "name": "id",
          "type": "bytes32"
        }
      ],
      "name": "withdrawFromAgreement",
      "outputs": [],
      "stateMutability": "nonpayable",
      "type": "function"
    }
  ],
  "bytecode": {
    "object": "0x60806040523480156200001157600080fd5b506040516200191738038062001917833981016040819052620000349162000082565b600180546001600160a01b039283166001600160a01b03199182161790915560008054939092169216919091179055620000c1565b6001600160a01b03811681146200007f57600080fd5b50565b600080604083850312156200009657600080fd5b8251620000a38162000069565b6020840151909250620000b68162000069565b809150509250929050565b61184680620000d16000396000f3fe608060405234801561001057600080fd5b50600436106100b45760003560e01c80638135fe23116100715780638135fe231461015b578063a4df7e931461016e578063ac41b75114610193578063b229a8f7146101b3578063d50b3f5f146101d4578063fc0c546a146101e757600080fd5b8063061ab0bc146100b9578063186799a4146100ce5780633267ad24146100e15780633b7c90611461010a5780633d3e73d71461011d5780636cc6cde114610130575b600080fd5b6100cc6100c7366004611385565b6101fa565b005b6100cc6100dc366004611385565b6102e5565b6100f46100ef366004611385565b6103d8565b60405161010191906113eb565b60405180910390f35b6100cc61011836600461143a565b6104ba565b6100cc61012b36600461149d565b61060a565b600154610143906001600160a01b031681565b6040516001600160a01b039091168152602001610101565b6100cc610169366004611385565b610980565b61018161017c366004611385565b610b1a565b6040516101019695949392919061151c565b6101a66101a1366004611385565b610bde565b6040516101019190611593565b6101c66101c13660046115ff565b610d39565b604051908152602001610101565b6100cc6101e2366004611634565b610e0d565b600054610143906001600160a01b031681565b60008181526002602052604090206005015460ff161561022c5760405162c5114560e21b815260040160405180910390fd5b61023581610ea3565b15610253576040516346c3eddb60e11b815260040160405180910390fd5b61025d8133610ee0565b61027a57604051631d93c53d60e11b815260040160405180910390fd5b60008181526002602052604090819020600501805460ff19166001179055517fb67e3ac5aa7b56d61e366985ea94be26db935eca5c55e0359fd36c5852b6fa39906102da90839033909182526001600160a01b0316602082015260400190565b60405180910390a150565b6102ee81610ea3565b61030b576040516351d8e4ef60e11b815260040160405180910390fd5b6103158133610ee0565b61033257604051631d93c53d60e11b815260040160405180910390fd5b600081815260026020908152604080832033808552600790910190925282206001018054908390559154610372916001600160a01b039091169083610f5a565b60008281526002602081815260408084203380865260079091019092528084209092015491517ff478e398a575434f5cfcff203322ebf8e4a1f357653fcde0cf89762888e099b6936103cc9387939260ff9091169061167b565b60405180910390a15050565b604080516060808201835260008083526020830152918101919091526040805160608101825260008481526002602081815284832080548552600181015482860152928790528190520180549192830191610432906116ae565b80601f016020809104026020016040519081016040528092919081815260200182805461045e906116ae565b80156104ab5780601f10610480576101008083540402835291602001916104ab565b820191906000526020600020905b81548152906001019060200180831161048e57829003601f168201915b50505050508152509050919050565b6104c48383610fdd565b6000546001600160a01b031663d505accf3330843560208601356104ee60608801604089016116e2565b6040516001600160e01b031960e088901b1681526001600160a01b0395861660048201529490931660248501526044840191909152606483015260ff166084820152606084013560a4820152608084013560c482015260e401600060405180830381600087803b15801561056157600080fd5b505af1158015610575573d6000803e3d6000fd5b505060005461059692506001600160a01b03169050333060208601356110bc565b6105c1836040518060400160405280336001600160a01b031681526020018560200135815250611146565b60408051848152336020808301919091528401358183015290517f314e33b9d3471b9e382d2ab35ef89aa6e094c1be576ddd9090b5d7d1195cbf709181900360600190a1505050565b6001546001600160a01b0316331461063557604051631777988560e11b815260040160405180910390fd5b61063e83610ea3565b1561065c576040516346c3eddb60e11b815260040160405180910390fd5b60008381526002602052604090206005015460ff1661068e57604051631385a51b60e21b815260040160405180910390fd5b60008381526002602052604081206006015482919082146106c257604051630c54b6e160e11b815260040160405180910390fd5b60005b828110156108f9578484828181106106df576106df611705565b6106f5926020604090920201908101915061171b565b6001600160a01b031660026000888152602001908152602001600020600601828154811061072557610725611705565b6000918252602090912001546001600160a01b03161461075857604051630c54b6e160e11b815260040160405180910390fd5b604051806060016040528082815260200186868481811061077b5761077b611705565b90506040020160200135815260200160018081111561079c5761079c61155b565b90526000878152600260205260408120600701908787858181106107c2576107c2611705565b6107d8926020604090920201908101915061171b565b6001600160a01b03166001600160a01b03168152602001908152602001600020600082015181600001556020820151816001015560408201518160020160006101000a81548160ff021916908360018111156108365761083661155b565b021790555090505084848281811061085057610850611705565b9050604002016020013582610865919061175a565b91507ff478e398a575434f5cfcff203322ebf8e4a1f357653fcde0cf89762888e099b68686868481811061089b5761089b611705565b6108b1926020604090920201908101915061171b565b8787858181106108c3576108c3611705565b9050604002016020013560016040516108df949392919061167b565b60405180910390a1806108f181611772565b9150506106c5565b50600085815260026020526040902060030154811461092b576040516323cdbf0960e11b815260040160405180910390fd5b60008581526002602052604090819020600401839055517fc1efb9b165d126a4a64b456bec4ab69b7bf85d85e16aa5acda227f2ba88126c4906109719087815260200190565b60405180910390a15050505050565b60008181526002602052604090206005015460ff16156109b25760405162c5114560e21b815260040160405180910390fd5b6109bc8133610ee0565b6109d957604051631d93c53d60e11b815260040160405180910390fd5b60016000828152600260208181526040808420338552600701909152909120015460ff166001811115610a0e57610a0e61155b565b03610a2c5760405163579077a560e11b815260040160405180910390fd5b60008181526002602081815260408084203385526007810183529084208301805460ff1916600190811790915585855292909152600401805491929091610a7490849061175a565b909155505060008181526002602090815260408083203380855260079091019092529182902060019081015492517ff478e398a575434f5cfcff203322ebf8e4a1f357653fcde0cf89762888e099b693610ad1938693909261167b565b60405180910390a1610ae281610ea3565b15610b17576040518181527fc1efb9b165d126a4a64b456bec4ab69b7bf85d85e16aa5acda227f2ba88126c4906020016102da565b50565b600260208190526000918252604090912080546001820154928201805491939291610b44906116ae565b80601f0160208091040260200160405190810160405280929190818152602001828054610b70906116ae565b8015610bbd5780601f10610b9257610100808354040283529160200191610bbd565b820191906000526020600020905b815481529060010190602001808311610ba057829003601f168201915b50505050600383015460048401546005909401549293909290915060ff1686565b6000818152600260205260408120600601546060918167ffffffffffffffff811115610c0c57610c0c61178b565b604051908082528060200260200182016040528015610c5e57816020015b610c4b60408051606081018252600080825260208201819052909182015290565b815260200190600190039081610c2a5790505b50905060005b82811015610d31576000858152600260205260408120600601805483908110610c8f57610c8f611705565b6000918252602080832090910154604080516060810182526001600160a01b039092168083528a8552600280855282862082875260070180865283872060018181015487890152978490529552939093015492945090929083019160ff1690811115610cfd57610cfd61155b565b815250838381518110610d1257610d12611705565b6020026020010181905250508080610d2990611772565b915050610c64565b509392505050565b600354604080513060208083019190915281830193909352815180820383018152606090910182528051908301206000818152600284528290208435815592840135600190930192909255610d90908301836117a1565b6000838152600260208190526040909120610dad939101916112ec565b5060038054906000610dbe83611772565b90915550506040805182815283356020808301919091528401358183015290517f88040d4fb9136a76875201bc4fe09c958ed1339ba6e0cd02ecf7ee3f3bfd18239181900360600190a1919050565b610e178282610fdd565b600054610e33906001600160a01b0316333060208501356110bc565b610e5e826040518060400160405280336001600160a01b031681526020018460200135815250611146565b6040805183815233602082810191909152830135918101919091527f314e33b9d3471b9e382d2ab35ef89aa6e094c1be576ddd9090b5d7d1195cbf70906060016103cc565b60008181526002602052604081206006015415801590610eda57506000828152600260205260409020600681015460049091015410155b92915050565b60008281526002602052604081206006015415801590610f53575060008381526002602090815260408083206001600160a01b0386168085526007820190935292205460069092018054919290918110610f3c57610f3c611705565b6000918252602090912001546001600160a01b0316145b9392505050565b600060405163a9059cbb60e01b8152836004820152826024820152602060006044836000895af13d15601f3d1160016000511416171691505080610fd75760405162461bcd60e51b815260206004820152600f60248201526e1514905394d1915497d19052531151608a1b60448201526064015b60405180910390fd5b50505050565b60008281526002602052604090206005015460ff161561100f5760405162c5114560e21b815260040160405180910390fd5b61101882610ea3565b15611036576040516346c3eddb60e11b815260040160405180910390fd5b6110408233610ee0565b1561105e57604051636d9bf6df60e01b815260040160405180910390fd5b61106b602082018261171b565b6001600160a01b0316336001600160a01b03161461109c57604051637ca6acb560e01b815260040160405180910390fd5b6000828152600260205260409020600101546110b89082611227565b5050565b60006040516323b872dd60e01b81528460048201528360248201528260448201526020600060648360008a5af13d15601f3d116001600051141617169150508061113f5760405162461bcd60e51b81526020600482015260146024820152731514905394d1915497d19493d357d1905253115160621b6044820152606401610fce565b5050505050565b6000828152600260208181526040808420600681018054875160018083018455928852858820820180546001600160a01b0319166001600160a01b039283161790558451606081018652828152898701518188019081528187018a81528c8b528989528b519093168a526007909501909652939096208451815591518282015591519381018054939491939192909160ff19169083818111156111eb576111eb61155b565b0217905550905050816020015160026000858152602001908152602001600020600301600082825461121d919061175a565b9091555050505050565b6000611236602083018361171b565b604080516001600160a01b0390921660208381019190915284013590820152606001604051602081830303815290604052805190602001209050600061128c83806040019061128591906117ef565b86856112ac565b905080610fd7576040516309bde33960e01b815260040160405180910390fd5b600081858560051b81015b808210156112df57813580841160051b938452602093841852604060002092909101906112b7565b5050909214949350505050565b8280546112f8906116ae565b90600052602060002090601f01602090048101928261131a5760008555611360565b82601f106113335782800160ff19823516178555611360565b82800160010185558215611360579182015b82811115611360578235825591602001919060010190611345565b5061136c929150611370565b5090565b5b8082111561136c5760008155600101611371565b60006020828403121561139757600080fd5b5035919050565b6000815180845260005b818110156113c4576020818501810151868301820152016113a8565b818111156113d6576000602083870101525b50601f01601f19169290920160200192915050565b6020815281516020820152602082015160408201526000604083015160608084015261141a608084018261139e565b949350505050565b60006060828403121561143457600080fd5b50919050565b600080600083850360e081121561145057600080fd5b84359350602085013567ffffffffffffffff81111561146e57600080fd5b61147a87828801611422565b93505060a0603f198201121561148f57600080fd5b506040840190509250925092565b6000806000604084860312156114b257600080fd5b83359250602084013567ffffffffffffffff808211156114d157600080fd5b818601915086601f8301126114e557600080fd5b8135818111156114f457600080fd5b8760208260061b850101111561150957600080fd5b6020830194508093505050509250925092565b86815285602082015260c06040820152600061153b60c083018761139e565b6060830195909552506080810192909252151560a0909101529392505050565b634e487b7160e01b600052602160045260246000fd5b6002811061158f57634e487b7160e01b600052602160045260246000fd5b9052565b602080825282518282018190526000919060409081850190868401855b828110156115f257815180516001600160a01b0316855286810151878601528501516115de86860182611571565b5060609390930192908501906001016115b0565b5091979650505050505050565b60006020828403121561161157600080fd5b813567ffffffffffffffff81111561162857600080fd5b61141a84828501611422565b6000806040838503121561164757600080fd5b82359150602083013567ffffffffffffffff81111561166557600080fd5b61167185828601611422565b9150509250929050565b8481526001600160a01b038416602082015260408101839052608081016116a56060830184611571565b95945050505050565b600181811c908216806116c257607f821691505b60208210810361143457634e487b7160e01b600052602260045260246000fd5b6000602082840312156116f457600080fd5b813560ff81168114610f5357600080fd5b634e487b7160e01b600052603260045260246000fd5b60006020828403121561172d57600080fd5b81356001600160a01b0381168114610f5357600080fd5b634e487b7160e01b600052601160045260246000fd5b6000821982111561176d5761176d611744565b500190565b60006001820161178457611784611744565b5060010190565b634e487b7160e01b600052604160045260246000fd5b6000808335601e198436030181126117b857600080fd5b83018035915067ffffffffffffffff8211156117d357600080fd5b6020019150368190038213156117e857600080fd5b9250929050565b6000808335601e1984360301811261180657600080fd5b83018035915067ffffffffffffffff82111561182157600080fd5b6020019150600581901b36038213156117e857600080fdfea164736f6c634300080d000a",
    "linkReferences": {}
  }
}